{
  "contractName": "DappToken",
  "abi": [
    {
      "inputs": [],
      "payable": false,
      "stateMutability": "nonpayable",
      "type": "constructor"
    },
    {
      "constant": true,
      "inputs": [],
      "name": "totalSupply",
      "outputs": [
        {
          "internalType": "uint256",
          "name": "",
          "type": "uint256"
        }
      ],
      "payable": false,
      "stateMutability": "view",
      "type": "function"
    }
  ],
  "bytecode": "0x6080604052348015600f57600080fd5b50620f42406000819055506084806100286000396000f3fe6080604052348015600f57600080fd5b506004361060285760003560e01c806318160ddd14602d575b600080fd5b60336049565b6040518082815260200191505060405180910390f35b6000548156fea265627a7a72315820f8f2cffc593616194f03f2104fbff73b99a181d5a36168482a2097822fdb676e64736f6c63430005100032",
  "source": "// SPDX-License-Identifier: MIT\n\npragma solidity >=0.4.2 <0.8.0;\n\ncontract DappToken {\n    uint256 public totalSupply;\n\n    constructor() public {\n        totalSupply = 1000000;\n    }\n}\n",
  "sourcePath": "/home/sven/JavaScript/DAPP-University/token_sale/contracts/DappToken.sol",
  "compiler": {
    "name": "solc",
    "version": "0.5.16+commit.9c3226ce.Emscripten.clang"
  },
  "schemaVersion": "3.2.3",
  "updatedAt": "2020-11-21T08:37:32.948Z",
  "networkType": "ethereum",
  "devdoc": {
    "methods": {}
  },
  "userdoc": {
    "methods": {}
  }
}